:1000000026C1000055C1000053C1000051C10000CD
:100010004FC100004DC100004BC1000049C10000AC
:1000200047C1000045C1000043C1000041C10000BC
:100030003FC100003DC100003BC1000039C10000CC
:1000400037C10000A3C6000033C1000031C1000069
:100050002FC100002DC100002BC100009BC5000076
:1000600027C100000C940E100C94E50F21C1000074
:100070001FC100001DC100001BC1000019C100000C
:1000800058C6000015C1000013C10000CDC5000016
:100090000FC100000DC100000BC1000009C100002C
:1000A00007C1000005C1000017C6000001C1000023
:1000B000FFC00000FDC00000FBC00000E0C5000064
:1000C000F7C00000F5C00000F3C00000F1C0000060
:1000D000EFC00000EDC00000EBC00000E9C0000070
:1000E000E7C00000830288028D029702A1021A0372
:1000F000AB02B302BB02C502CF02D902E802F20290
:100100001A03FC0206031003CF0ED20EC10EC50E59
:10011000CB0E090FD60EDA0EE00EE40EE80EEE0E50
:10012000F20EF60E090FFC0E000F040F0000210066
:10013000240027002A002D003000330001010000B8
:10014000040107010A0100002200250028002B00FD
:100150002E003100340002010000050108010B01EE
:10016000000020002300260029002C002F00320070
:100170000001000003010601090105050505070549
:1001800008080808020202020A0A08080404040413
:10019000010101010101010103030303030303033F
:1001A000040707070C0C0C0C0C0C0C0C02020202CE
:1001B00006060606060606060B0B0B0B0B0B0B0BB7
:1001C0000102102020080810204010204080020169
:1001D000020108040201010204081020408080404E
:1001E000201008040201800402018040201008044D
:1001F00002010804020101020408102040800102EB
:1002000004081020408000000A0B02090C0D0E08A3
:1002100007030401000000000000000000000000CF
:1002200000000000000000000000000000000000CE
:10023000000012111000000000000000000000008B
:10024000000000000000000000000000D710112492
:100250001FBECFEFD1E2DEBFCDBF00E00CBF13E089
:10026000A0E0B2E0EAE9FBE200E00BBF02C00790C9
:100270000D92A031B107D9F72DE0A0E1B3E001C0A4
:100280001D92AC3FB207E1F711E0C7E2D1E000E018
:1002900006C021970109802FFE010E947613C63205
:1002A000D10780E00807A9F70E94A4110C94CB1590
:1002B000A7CE863308F0865390917B00282F2870B4
:1002C000977F922B90937B008770806480937C0053
:1002D00080917A00806480937A0080917A0086FD14
:1002E000FCCF809178002091790090E0922B0895C6
:1002F0003FB7F8948091AC069091AD06A091AE0600
:10030000B091AF0626B5A89B05C02F3F19F0019606
:10031000A11DB11D3FBFBA2FA92F982F8827820F8B
:10032000911DA11DB11DBC01CD0142E0660F771FDB
:10033000881F991F4A95D1F708950F931F93CF9364
:10034000DF93FC01468D578D4F3FFFEF5F0711F4A0
:1003500080E04DC0EC010C891D89000F111F0C0FAE
:100360001D1F2E893F89F80180819181281B390B3F
:100370003F8B2E8B842F9DDFF801918380832C8906
:100380003D89F901EE0FFF1FEC0FFD1F4E895F89BC
:1003900080819181840F951F9F8B8E8B2F5F3F4FA4
:1003A0002A3031051CF43D8B2C8B02C01D8A1C8A1F
:1003B0006AE070E00E9463137B8F6A8F8C8D9D8D45
:1003C0009B01281B390BC90137FF04C022273327A3
:1003D000281B390B233031050CF4BACF89539F4FBA
:1003E0008F38914008F0B4CF7D8F6C8F81E0DF9122
:1003F000CF911F910F910895CF93DF93DB01EA0115
:10040000FC01ED55F94F208127FF04C011961C9285
:100410001E920DC040815CE0589F9001599F300DA5
:100420001124240F311D47FD3A9537FD208120818D
:100430002F5F20834CE0489F9001499F300D11248D
:100440008081A901480F511D87FD5A9557FF1EC095
:1004500080818C30DCF44D915C918081B901680F12
:10046000711D87FD7A95CB01DB01AA0FBB1F8A0F97
:100470009B1FDC01AD5EB94F11968D919C91129737
:10048000840F951F99838883808111C08D919C91E1
:100490001197049680349C4918F480E49CE903C0C9
:1004A0008D919C910496998388838FEF8083DF914F
:1004B000CF9108951F93CF93DF93182FEB0161E045
:1004C0000E949B10209711F460E004C0CF3FD1053B
:1004D00039F461E0812FDF91CF911F910C946C1062
:1004E000E12FF0E0EA5FFD4FE4914E2F50E0FA017A
:1004F0003197E231F10508F09DC08827EE58FF4F93
:100500008F4F0C94761384B5806884BDC7BD97C0A7
:1005100084B5806284BDC8BD92C08091800080682F
:1005200080938000D0938900C093880088C0809118
:100530008000806280938000D0938B00C0938A00FB
:100540007EC080918000886080938000D0938D0071
:10055000C0938C0074C08091B00080688093B0001C
:10056000C093B3006CC08091B00080628093B000F3
:10057000C093B40064C08091900080688093900024
:10058000D0939900C09398005AC0809190008062E7
:1005900080939000D0939B00C0939A0050C08091AC
:1005A0009000886080939000D0939D00C0939C0041
:1005B00046C08091A00080688093A0008091A00038
:1005C0008F7B8093A000D093A900C093A80037C070
:1005D0008091A00080628093A000D093AB00C09374
:1005E000AA002DC08091A00088608093A000D093C5
:1005F000AD00C093AC0023C080912001806880933F
:100600002001D0932901C093280119C080912001B5
:10061000806280932001D0932B01C0932A010FC0E8
:1006200080912001886080932001D0932D01C09398
:100630002C0105C0C038D1050CF04BCF45CFDF9160
:10064000CF911F910895CF92DF92EF92FF920F9377
:100650001F93CF93DF93CDB7DEB7A0970FB6F89473
:10066000DEBF0FBECDBF7C01D62ECA011A8E198EF9
:100670001C8E1B8E1E8E1D8E4AE08E010F5F1F4F3B
:10068000B8010E94CB12F80101900020E9F73197E0
:10069000AF01401B510BB801CE0149960E94AF0F2C
:1006A0001C8A1B8A1E8A1D8A188E1F8A4AE0B8017E
:1006B0008D2D90E00E94DD12F80101900020E9F7F5
:1006C0003197AF01401B510BB801CE0143960E94F8
:1006D000AF0F1A8219821C821B821E821D82F701B3
:1006E000608171816115710529F044815581C801CE
:1006F0000E94AF0FBE016D5E7F4FC8010E949E0F2A
:100700006AEF72E00E94870FBE01675E7F4F0E9412
:100710009E0F7C018BE38F8F18A241E050E0BE0159
:10072000615E7F4FC7010E944A0F811103C0C7015C
:100730000E94760FC7010E94310FC8010E94CD0FA1
:10074000CE0143960E94CD0FCE0149960E94CD0F57
:10075000CFDD6B017C01CCDDDC01CB018C199D0967
:10076000AE09BF09883E9340A105B105A0F3A0964C
:100770000FB6F894DEBF0FBECDBFDF91CF911F91B2
:100780000F91FF90EF90DF90CF9008951F93CF933C
:10079000DF93EC01862F688379835B834A832B8701
:1007A0009E81992311F010E001C012E0612F0E9498
:1007B0009B10612F8A810E949B10612F8C810E9467
:1007C0009B1088810E9444102E8130E0821793078D
:1007D00021F483E090E09A8789878A810E944410FF
:1007E0002E8130E08217930731F489859A8521E0C4
:1007F00082279A878987DF91CF911F9108952FB71C
:10080000F8946091A8067091A9068091AA0690912B
:10081000AB062FBF08952F923F924F925F926F9237
:100820007F928F929F92AF92BF92CF92DF92EF9280
:10083000FF920F931F93CF93DF9300D000D0CDB7DB
:10084000DEB723E937E03E832D8307EA17E099E915
:10085000C92E97E0D92EE12CF12C29E1B22E33E0FC
:10086000232E312CCCDF2B013C01AD81BE818D913B
:100870009C911197181619060CF074C012962D91C0
:100880003C911397121613060CF06CC04801B6E0A9
:100890008B1A9108F4012081222399F0BE9CF0016B
:1008A000BF9CF00D1124ED56F84F2485358522505C
:1008B0003109358724872485358537FF02C01586A1
:1008C00014860E944410D6012C9130E082179307C1
:1008D00019F483E0A82E01C0A12CED81FE81828154
:1008E0000E944410D6012C9130E08217930711F436
:1008F000B1E0AB26BE9CF001BF9CF00D1124ED567B
:10090000F84F21853285422F4A1940FF13C08A2DA6
:10091000AA0C990B9287818727813085842F82705A
:10092000082E000C990B0197820F931F90878783E5
:1009300081E001C080E0F4019081992399F088233F
:1009400089F0BE9CF001BF9CF00D1124ED56F84FCC
:10095000848595858B3F9B4028F4848595850696F4
:1009600095878487AD81BE8114966D917C91159792
:10097000161617060CF08AC055962D913D914D9193
:100980005C915897D301C201821B930BA40BB50B4A
:100990000A97A105B10508F479C0AD81BE815596CD
:1009A0004D925D926D927C925897862F0E944410D2
:1009B000F601208130E082179307B9F4AD81BE8142
:1009C00052968D919C915397019653969C938E933A
:1009D00052978937910548F0BE9CF001BF9CF00DFD
:1009E0001124ED56F84F308A2786ED81FE818481EF
:1009F0000E944410D6012C91B1E02B2730E08217E1
:100A0000930789F5ED81FE8182899389892B39F1DC
:100A1000BE9CF001BF9CF00D1124ED56F84F878568
:100A20009089039731F424E030E0308B2787D80198
:100A30000AC0D8018C91823040F08C3380F426E0DB
:100A400030E0308B27871C920AC0F80133978081F1
:100A5000811102C081E001C08CE3D8018C93ED814B
:100A6000FE81138A128AD8018C91882379F08250F2
:100A70008C9381110BC0BE9CF001BF9CF00D112422
:100A8000ED56F84F25E030E0308B27873FEFE31A33
:100A9000F30A4D815E81475E5F4F5E834D83075E43
:100AA0001F4F59E1C50ED11C80E1E816F10409F091
:100AB000D9CE26960FB6F894DEBF0FBECDBFDF911C
:100AC000CF911F910F91FF90EF90DF90CF90BF904B
:100AD000AF909F908F907F906F905F904F903F90DE
:100AE0002F900895CF92DF92EF92FF921F93CF93B2
:100AF000DF93FC01278130852F3FFFEF3F0709F48B
:100B000040C0EC01822F0E94441011E0892B09F4AF
:100B100010E08E81982F977F9E838695817018179D
:100B200049F06DDE688379838A839B839E8182E0AE
:100B3000892721C064DEC880D980EA80FB80AB01B0
:100B4000BC014C195D096E097F098C819D81A0E073
:100B5000B0E0481759076A077B0770F08E818170F3
:100B6000811751F04CDE688379838A839B839E8151
:100B700081E0892788608E838E8183FB882780F9B6
:100B800001C080E0DF91CF911F91FF90EF90DF9047
:100B9000CF9008951F920F920FB60F9211242F93AA
:100BA0003F938F939F93AF93BF938091A8069091AB
:100BB000A906A091AA06B091AB063091A70623E042
:100BC000230F2D3720F40196A11DB11D05C026E885
:100BD000230F0296A11DB11D2093A7068093A8069E
:100BE0009093A906A093AA06B093AB068091AC0699
:100BF0009091AD06A091AE06B091AF060196A11DF1
:100C0000B11D8093AC069093AD06A093AE06B09351
:100C1000AF06BF91AF919F918F913F912F910F9010
:100C20000FBE0F901F9018951F920F920FB60F9244
:100C300011240BB60F922F933F934F935F936F93B3
:100C40007F938F939F93AF93BF93EF93FF93E09125
:100C5000F406F091F5061995FF91EF91BF91AF91D0
:100C60009F918F917F916F915F914F913F912F91C4
:100C70000F900BBE0F900FBE0F901F9018951F92F4
:100C80000F920FB60F9211240BB60F922F933F9332
:100C90004F935F936F937F938F939F93AF93BF9384
:100CA000EF93FF9348E251E064E271E080E090E06E
:100CB000A3DBFF91EF91BF91AF919F918F917F91B6
:100CC0006F915F914F913F912F910F900BBE0F90BD
:100CD0000FBE0F901F9018951F920F920FB60F9294
:100CE00011240BB60F922F933F934F935F936F9303
:100CF0007F938F939F93AF93BF93EF93FF9348EAB4
:100D000050E064EA70E083E090E076DBFF91EF91E1
:100D1000BF91AF919F918F917F916F915F914F9113
:100D20003F912F910F900BBE0F900FBE0F901F9011
:100D300018951F920F920FB60F9211240BB60F92B7
:100D40002F933F934F935F936F937F938F939F93D3
:100D5000AF93BF93EF93FF9348E950E064E970E0ED
:100D600082E090E049DBFF91EF91BF91AF919F91BD
:100D70008F917F916F915F914F913F912F910F9044
:100D80000BBE0F900FBE0F901F9018951F920F92E1
:100D90000FB60F9211240BB60F922F933F934F93E0
:100DA0005F936F937F938F939F93AF93BF93EF93D3
:100DB000FF9348E850E064E870E081E090E01CDBDD
:100DC000FF91EF91BF91AF919F918F917F916F9123
:100DD0005F914F913F912F910F900BBE0F900FBEDF
:100DE0000F901F9018952F923F924F925F926F92A3
:100DF0007F928F929F92AF92BF92CF92DF92EF92AB
:100E0000FF920F931F93CF93DF93CDB7DEB7CC5FE5
:100E1000D2400FB6F894DEBF0FBECDBFF0DC6093BA
:100E20000F0670931006809311069093120600919E
:100E3000B0061091B1062091B2063091B3066B0155
:100E40007C01C01AD10AE20AF30A45EFC41641E058
:100E5000D406E104F10470F06093B0067093B1061B
:100E60008093B2069093B30605C086EF96E086D6CF
:100E70008D3039F486EF96E0A3D618161906ACF338
:100E800025C020910A0430910B048B3381F4F901C1
:100E9000E05FFC4F8083118260E173E08FE094E0BB
:100EA0000E94B01510920B0410920A04E3CF293F60
:100EB000310500F7A9014F5F5F4F50930B0440933A
:100EC0000A04F901E05FFC4F8083D4CF80910F04C6
:100ED000882309F4DAC46FE074E0CE018F519E4F8D
:100EE0000E94D10F69E172E0CE0101960E94D10FFC
:100EF000BE016F517E4FCE0101960E949E0FB1D769
:100F000042E050E06DE472E086EF96E0F9D5CE0164
:100F100001960E94CD0FCE018F519E4F0E94CD0FA2
:100F200061E073E08FE094E00E94A11222242A94F1
:100F3000322C009709F4A7C4BC01CE018F519E4FFB
:100F40000E94C415BE016F517E4FCE0101960E94D2
:100F5000D10F60E572E0CE0185529D4F0E94D10F06
:100F6000BE016F5F7F4FCE0185529D4FE7D779D786
:100F7000CE0185529D4F0E94CD0FCE0101960E9459
:100F8000CD0F6AEF72E0CE018F519E4F0E94A112E9
:100F90008C0185E792E06DD7C8016BD76BE972E0F1
:100FA000C8010E94BB15892B09F091C06AEF72E05D
:100FB00080E090E00E94A1128C015BE8C52E5CE00D
:100FC000D52E61E9A62E6CE0B62EE12CF12C73E053
:100FD000972E0115110509F452C0C8010E94841210
:100FE000182F62E0C450DD4F9883CC5FD2400E943E
:100FF0009B10F6011783C450DD4F9881CC5FD2401F
:101000009087F5011082812F0E944410892B11F0E6
:10101000F5019082F4DBF601608371838283938310
:10102000C60160DDF50140814170F601178163EA78
:1010300072E0CE010196C450DD4F4883CC5FD240B0
:10104000B0D7C450DD4F4881CC5FD24050E0612F13
:10105000CE010196F8DACE0101969FD76AEF72E0D1
:1010600080E090E00E94A1128C01FFEFEF1AFF0ACE
:1010700029E0C20ED11C39E0A30EB11CAACF29E091
:101080002E9DC0012F9D900D1124FC01EF56F34FB2
:101090006F0143E0B42E38E2E316F104C4F4F60124
:1010A0003282218210828FEFEFD7892B11F0F60167
:1010B000B082A5DBF60136976083718382839383C8
:1010C000FFEFEF1AFF0A29E0C20ED11CE4CF67EA56
:1010D00072E0C8010E94BB15892B09F0ADC06AEF10
:1010E00072E080E090E00E94A1128C01CE01019696
:1010F0005C016C01E12CF12C0115110591F0B80196
:10110000C6010E94C4156AEF72E080E090E00E9480
:10111000A1128C01FFEFEF1AFF0A2EE1C20ED11CC3
:10112000EBCF33E9432E37E0532E812C912C8E14D4
:101130009F0409F463C0B501CE0185529D4F0E9402
:10114000C41563EB72E0CE0185529D4F0E94A1123F
:10115000C12CD12C31E0C550DD4F3883CB5FD2405C
:1011600066246A94762CEFEFFFEFC750DD4FF983CA
:10117000E883C95FD240009749F1C114D10449F412
:101180000E948412C750DD4F99838883C95FD24083
:1011900013C0F1E0CF16D10421F40E9484123C0167
:1011A0000BC022E0C216D10439F40E948412C5504B
:1011B000DD4F8883CB5FD24063EB72E080E090E04C
:1011C0000E94A1123FEFC31AD30AD5CFC550DD4FFD
:1011D0002881CB5FD240A301C750DD4F6881798160
:1011E000C95FD240C201D2DA4FEF841A940A89E172
:1011F000480E511C9EE1A90EB11C99CF89E18E9D2C
:1012000050018F9DB00C1124C12CD12C20E1E2168D
:10121000F10494F4C6018A0D9B1D21E04FEF5FEFAE
:101220006FEF7FEF8D56984FB1DAEFEFEE1AFE0AAF
:10123000F9E1CF0ED11CEACF65EB72E0C8010E9444
:10124000BB15892B09F05EC06AEF72E080E090E088
:101250000E94A1128C019BE8C92E9AE0D92EE12CA4
:10126000F12C01151105B1F1C8010E9484128031E1
:10127000910540F4F601978F868F1BD8F601938F66
:10128000828F07C08F3FFFEF9F0719F4F601978FFA
:10129000868FC60152D8F601A28CB38C168D6EEBE8
:1012A00072E0CE0101967DD6A501612FCE01019697
:1012B000CAD9CE01019671D66AEF72E080E090E063
:1012C0000E94A1128C01FFEFEF1AFF0A20E2C20E6A
:1012D000D11CC7CF970185E0220F331F8A95E1F714
:1012E00080E090E0E0E1EE16F10464F4FC01E20F2E
:1012F000F31FE557F54F378E268E4FEFE41AF40AA9
:101300008096F0CF63EC72E0C8010E94BB15892B78
:1013100009F04DC06AEF72E080E090E00E94A112F7
:101320008C01B3E4CB2EBAE0DB2EE12CF12C0115BD
:10133000110529F1C8010E9484129C012250310933
:101340002C30310538F4F6019583848360817181F6
:10135000B1D807C08F3FFFEF9F0719F4F6019583BF
:1013600084836AEF72E080E090E00E94A1128C0119
:10137000FFEFEF1AFF0A26E0C20ED11CD8CF86E09D
:101380008E9D90018F9D300D112480E090E0ECE067
:10139000EE16F10464F4FC01E20FF31FED5BF54F70
:1013A000358224824FEFE41AF40A0696F0CF6CECF3
:1013B00072E0C8010E94BB15892BD9F56AEF72E073
:1013C00080E090E00E94A1128C01A12CB12CAEEF24
:1013D000CA2EDD24DA94E12CF12C01151105D9F087
:1013E000E114F10429F4C8010E9484126C0108C0C0
:1013F000F1E0EF16F10421F4C8010E9484125C01AF
:101400006AEF72E080E090E00E94A1128C012FEF61
:10141000E21AF20AE2CFE3E4FAE0848195818C15C6
:101420009D0511F4B182A08236963AE0EB38F307BD
:10143000A1F760ED72E0C8010E94BB15892B09F08D
:10144000D6C06AEF72E080E090E00E94A1128C01A9
:1014500043E1C42E4AE0D42E56E1A52E5AE0B52E23
:10146000E12CF12C62E2962E76E9872E77247A948D
:10147000E2E06E2EFAE15F2E0115110509F479C044
:10148000C8010E9484129C012B5031092330310580
:1014900008F05FC0F50131979082F5018082F60176
:1014A0008083F5013297708260E016D661E0F60124
:1014B000808141D680910E04811124C080910D0459
:1014C000811120C080910C0481111CC09FB7F89439
:1014D000609280005092810028EB3BE030938900BD
:1014E0002093880030938B0020938A00E0E4FCE98D
:1014F000F0938700E093860080916F00887F80934F
:101500006F009FBFF60180818B3049F481E08093AA
:101510000E04809180008F73806880938000F601B4
:1015200080818C3049F481E080930D0480918000AB
:101530008F7C806280938000F60180818D3049F439
:1015400081E080930C0480918000837F8860809389
:1015500080006AEF72E080E090E0F3D78C01FFEF4B
:10156000EF1AFF0A24E0C20ED11C34E0A30EB11C16
:1015700083CFC701880F991F880F991FFC01ED5E6B
:10158000F54F6F013CE0E316F1048CF5F601808124
:101590008B3051F410920E04809180008F738093F1
:1015A000800060E08081C7D5F60180818C3051F4E5
:1015B00010920D04809180008F7C8093800060E009
:1015C0008081B9D5F60180818D3051F410920C04E0
:1015D00080918000837F8093800060E08081ABD524
:1015E000FFEFEF1AFF0A24E0C20ED11CCBCF6BED48
:1015F00072E0C8010E94BB15892B09F0ABC06AEFED
:1016000072E080E090E09DD78C01E12CF12C8EEF10
:101610009FEFC750DD4F99838883C95FD240C12CAB
:10162000D12C01151105E9F0C114D10449F4C80108
:101630006BD7C750DD4F99838883C95FD24007C0FD
:1016400091E0C916D10419F4C8015ED77C016AEF94
:1016500072E080E090E075D78C01EFEFCE1ADE0AE1
:10166000E0CF9E2C8F2CF7FE02C0912C812C23E121
:10167000C22E2AE0D22EA12CB12CF601F081C55049
:10168000DD4FF883CB5FD2408F2F90E0C750DD4F06
:1016900028813981C95FD2408217930709F04FC072
:1016A000F7FC07C035EBE316F1041CF0A4EBB0E047
:1016B00002C0A92DB82DF501ED5EF54FA183428042
:1016C000238130E024193109512C612C712C762CA6
:1016D000652C542C4424A901330F660B770B222769
:1016E000342F452F562FB8D724EB30E040E050E0A0
:1016F0008DD7C301B201620F731F841F951F28E0AD
:1017000030E040E050E082D7C550DD4F8881CB5FAC
:10171000D2408B3021F43093890020938800F60169
:1017200080818C3021F430938B0020938A00F60165
:1017300080818D3021F430938D0020938C00F4E073
:10174000CF0ED11C24E0A20EB11C30E3A316B104CD
:1017500009F093CF61EE72E0C8010E94BB15892B9E
:1017600009F04DC06AEF72E080E090E0EAD68C01AB
:10177000A3E2CA2EA9E0DA2EE12CF12C0115110505
:1017800031F1C801C1D69C01265131092032310501
:1017900050F4F6019583848361E0CDD460E0F601D6
:1017A00084819AD407C08F3FFFEF9F0719F4F60199
:1017B000958384836AEF72E080E090E0C2D68C016A
:1017C000FFEFEF1AFF0A26E0C20ED11CD7CF86E04A
:1017D0008E9D90018F9D300D112480E090E0E8E215
:1017E000EE16F10464F4FC01E20FF31FED5DF64F19
:1017F000358224824FEFE41AF40A0696F0CF6DEE9C
:1018000072E0C8010E94BB15892BB9F56AEF72E03E
:1018100080E090E096D6E12CF12CFEEFCF2EDD2477
:10182000DA9400E010E0009799F00115110519F421
:101830006BD66C0105C00130110511F465D67C0131
:101840006AEF72E080E090E07CD60F5F1F4FEBCF35
:10185000E3E2F9E0848195818C159D0549F422E04D
:10186000E216F10418F01182108202C0F182E082C7
:1018700036963AE0E331F30769F763EB72E080E014
:1018800090E05FD656CB10920F040BE81CE0C80125
:1018900029D98823E1F0F80146814170F78063EA95
:1018A00072E0CE010196C450DD4F4883CC5FD24038
:1018B00078D3C450DD4F4881CC5FD24050E06F2DCB
:1018C000CE0101960E942303CE01019666D3075FE5
:1018D0001F4FFDE0033F1F07D1F60BE81AE0C801D8
:1018E0000E949D01882391F0F801C28CD38CF68C64
:1018F0006EEB72E0CE01019654D3A6016F2DCE019E
:1019000001960E942303CE01019647D3005E1F4F2C
:10191000FCE00B381F0719F754EBC52E56E0D52E07
:1019200064EDA62E66E0B62E71EAE72E77E0F72E7C
:1019300000E010E0E9E19E2E909EF001919EF00DF6
:101940001124ED56F84F87819085D70113972C917C
:10195000223041F49C0121703327308727839595ED
:1019600087950EC0243051F49C01237033273087B3
:101970002783959587959595879502C01086178240
:10198000F7012081222361F0909EF001919EF00DDD
:101990001124ED56F84F44855585452F552702C033
:1019A00040E050E097FF03C04095509507C0892B59
:1019B00019F04F5F5F4F02C040E050E0F6018081B8
:1019C0009181480F591F51834083F5018081918196
:1019D00048175907D1F03A01681A790AF7013E977A
:1019E000808064EF72E0CE010196DBD2A301682D06
:1019F000CE0101960E942303CE010196CED2F601BC
:101A000080819181F501918380830F5F1F4FF2E008
:101A1000CF0ED11C22E0A20EB11C39E1E30EF11C65
:101A20000031110509F088CF03E41AE0F801848140
:101A300095818F3FFFEF9F0729F0F8016081718149
:101A40000E945A020A5F1F4FFAE00B381F0771F716
:101A500003E219E0F801848195818F3FFFEF9F0732
:101A600051F0F801208131812130310511F461E01C
:101A700001C060E031D30A5F1F4FFAE003311F0756
:101A800049F780910002882309F18CEF92E0F1D1AF
:101A900063E073E0CE018F519E4F83D267E073E025
:101AA000CE0101967ED2BE016F517E4FCE010196CE
:101AB00045D261E073E02BD2D4D1CE0101966DD234
:101AC000CE018F519E4F69D210920002C450DD4F5B
:101AD0000FB6F894DEBF0FBECDBFDF91CF911F913F
:101AE0000F91FF90EF90DF90CF90BF90AF909F90BD
:101AF0008F907F906F905F904F903F902F900895C0
:101B0000CF92DF92EF92FF920F931F93CF93DF93C9
:101B10006C017A018B01C0E0D0E0CE15DF0589F0C1
:101B2000D8016D918D01D601ED91FC910190F0816C
:101B3000E02DC6011995892B11F47E0102C0219672
:101B4000ECCFC701DF91CF911F910F91FF90EF90E4
:101B5000DF90CF900895089580E090E00895FC0113
:101B6000538D448D252F30E0842F90E0821B930B02
:101B7000541710F0CF96089501970895FC01918DA8
:101B8000828D981761F0828DDF01A80FB11D5D96DF
:101B90008C91928D9F5F9F73928F90E008958FEF4D
:101BA0009FEF0895FC01918D828D981731F0828D01
:101BB000E80FF11D858D90E008958FEF9FEF089558
:101BC000FC01918D228D892F90E0805C9F4F821BBC
:101BD00091098F739927089586EF96E0F1DF21E050
:101BE000892B09F420E0822F0895FC01848DDF0108
:101BF000A80FB11DA35ABF4F2C91848D90E0019680
:101C00008F739927848FA689B7892C93A089B1896E
:101C10008C9180648C93938D848D981306C0028878
:101C2000F389E02D80818F7D80830895EF92FF926C
:101C30000F931F93CF93DF93EC0181E0888F9B8DEF
:101C40008C8D981305C0E889F989808185FD23C0B2
:101C5000F62E0B8D10E00F5F1F4F0F731127E02E34
:101C60008C8DE8120BC00FB607FCFACFE889F98912
:101C7000808185FFF5CFCE01B8DFF2CF8B8DFE01DD
:101C8000E80FF11DE35AFF4FF0820B8FEA89FB89C1
:101C90008081806207C0EE89FF896083E889F989C5
:101CA00080818064808381E090E0DF91CF911F91FB
:101CB0000F91FF90EF900895CF93DF93EC01888D03
:101CC0008823C1F0EA89FB89808185FD05C0A88948
:101CD000B9898C9186FD0EC00FB607FCF5CF8081C7
:101CE00085FFF2CFA889B9898C9185FFEDCFCE0110
:101CF0007CDFE8CFDF91CF91089580E090E0892BE1
:101D000019F06ADF811125C080E090E0892B41F055
:101D100080E090E0892B21F00E94000081111CC01E
:101D200080E090E0892B41F080E090E0892B21F069
:101D30000E940000811113C080E090E0892BA1F087
:101D400080E090E0892B81F00E94000081110AC0A0
:101D500008950E940000D8CF0E940000E1CF0E94A9
:101D60000000EACF0C940000089590E0FC01319748
:101D7000E231F10508F04DC08827EC57FF4F8F4F37
:101D8000B5C4809180008F7703C0809180008F7DE3
:101D900080938000089580918000877FF9CF84B57B
:101DA0008F7702C084B58F7D84BD08958091B00087
:101DB0008F7703C08091B0008F7D8093B00008952D
:101DC000809190008F7707C0809190008F7D03C035
:101DD00080919000877F8093900008958091A0006B
:101DE0008F7707C08091A0008F7D03C08091A000F5
:101DF000877F8093A0000895809120018F7707C08E
:101E0000809120018F7D03C080912001877F809386
:101E10002001089598D60F931F93CF93DF93EC0181
:101E200088819981009729F02A813B8126173707FD
:101E300080F48B016F5F7F4FA2D5009761F099838B
:101E400088831B830A832C813D81232B11F4FC01A1
:101E5000108281E001C080E0DF91CF911F910F914E
:101E60000895FC01448155816081718186EF96E07F
:101E700047CE009761F0FC0101900020E9F731970F
:101E8000AF01481B590BBC0186EF96E039CE80E0CC
:101E900090E00895EF92FF920F931F93CF93DF93FB
:101EA000FC01248135816115710511F480E017C0B2
:101EB0004115510599F07B01EC018A01020F131FB6
:101EC000B801A9DF882391F3288139818C819D8114
:101ED000B701820F931F58D61D830C8381E0DF91D9
:101EE000CF911F910F91FF90EF900895CF93DF93C3
:101EF000EC0188819981009709F0A9D41982188290
:101F00001D821C821B821A82DF91CF910895CF938C
:101F1000DF93EC016115710559F0FB010190002080
:101F2000E9F73197AF01461B570BB4DF811102C0AF
:101F3000CE01DCDFCE01DF91CF910895CF93DF9307
:101F4000EC01FB014481558160817181A3DF811126
:101F500002C0CE01CBDFCE01DF91CF910895EF9289
:101F6000FF920F931F93CF93DF93EC017B018A01C4
:101F7000BA0151DF811103C0CE01B8DF06C01D8355
:101F80000C83B70188819981FFD5CE01DF91CF9174
:101F90001F910F91FF90EF900895FC018081918136
:101FA00056C4FC011182108213821282158214829F
:101FB0006115710549F0FB0101900020E9F73197A7
:101FC000AF01461B570BCBCF08951F920F920FB650
:101FD0000F9211240BB60F922F933F934F935F9361
:101FE0006F937F938F939F93AF93BF93EF93FF93E1
:101FF00086EF96E0FADDFF91EF91BF91AF919F914F
:102000008F917F916F915F914F913F912F910F90A1
:102010000BBE0F900FBE0F901F9018951F920F923E
:102020000FB60F9211240BB60F922F938F939F939D
:10203000EF93FF93E0910607F09107078081E0910D
:102040000C07F0910D0782FD12C0908180910F075F
:102050008F5F8F7320911007821751F0E0910F0767
:10206000F0E0EA50F94F958F80930F0701C080810F
:10207000FF91EF919F918F912F910F900BBE0F9039
:102080000FBE0F901F901895CF93DF93282F30E04D
:10209000F901EA5FFD4F8491F901E054FE4FD491BC
:1020A000F901E658FE4FC491CC2389F081115DDE21
:1020B000EC2FF0E0EE0FFF1FE05AFE4FA591B49118
:1020C000EC91ED2381E090E021F480E002C080E01B
:1020D00090E0DF91CF9108951F93CF93DF93282F46
:1020E00030E0F901EA5FFD4F8491F901E054FE4FC1
:1020F000D491F901E658FE4FC491CC23C1F0162FBC
:10210000811133DEEC2FF0E0EE0FFF1FEA5BFE4F94
:10211000A591B4918FB7F894111105C09C91ED2F42
:10212000E095E92302C0EC91ED2BEC938FBFDF919A
:10213000CF911F910895CF93DF9390E0FC01E0547D
:10214000FE4F2491FC01E658FE4F8491882361F1F3
:1021500090E0880F991FFC01E45DFE4FC591D4917A
:10216000FC01EA5BFE4FA591B491611109C09FB7D4
:10217000F8948881209582238883EC912E230BC0CC
:10218000623061F49FB7F8943881822F8095832361
:102190008883EC912E2B2C939FBF06C08FB7F894A9
:1021A000E8812E2B28838FBFDF91CF910895109265
:1021B000F9061092F80688EE93E0A0E0B0E0809374
:1021C000FA069093FB06A093FC06B093FD068BE005
:1021D00092E09093F7068093F60685EC90E090935A
:1021E00003078093020784EC90E0909305078093A7
:1021F000040780EC90E0909307078093060781EC3A
:1022000090E0909309078093080782EC90E0909308
:102210000B0780930A0786EC90E090930D0780935C
:102220000C0710920F0710921007109211071092CE
:102230001207EBE8FCE02AE030E08FEF9FEF10821E
:1022400011821282138235832483168290878783BA
:1022500039964DE0E33FF40791F7EBE8FAE08FEFB2
:102260009FEF158A148A178A168A118E108E978FFF
:10227000868F138E128E158E148E9F012C5E3F4F0B
:10228000DF011D921D92A217B307D9F7B0962CE07B
:10229000EB38F20731F7E3E4FAE08FEF9FEF958335
:1022A00084831182108236963AE0EB38F307B9F74F
:1022B00080E090E02FEFFC01ED5EF54F108221836E
:1022C000049680339105B9F7E3E2F9E08FEF9FEFD1
:1022D000958384831182108236964AE0E331F407B5
:1022E000B9F7E3E9F7E080E090E04FEF5FEF21E03E
:1022F000518340835383428355834483DC01AD562D
:10230000B84F16961C921697108617821286118661
:102310001B962C931B97158614861E962C931E973E
:10232000108A178651962C935197138A128A5496C5
:102330001C92158A168A178A108E499679968039CA
:1023400031E09307A9F60895789484B5826084BD3E
:1023500084B5816084BD85B5826085BD85B58160A9
:1023600085BD80916E00816080936E001092810027
:1023700080918100826080938100809181008160E2
:1023800080938100809180008160809380008091A3
:10239000B10084608093B1008091B000816080932F
:1023A000B0008091910082608093910080919100B3
:1023B0008160809391008091900081608093900073
:1023C0008091A10082608093A1008091A100816032
:1023D0008093A1008091A00081608093A0008091F3
:1023E000210182608093210180912101816080938D
:1023F00021018091200181608093200180917A00E9
:10240000846080937A0080917A00826080937A0061
:1024100080917A00816080937A0080917A00806850
:1024200080937A001092C100E0910607F0910707AF
:1024300082E08083E0910607F09107071082E09127
:102440000207F09103071082E0910407F09105075D
:1024500090E1908310920E07E0910A07F0910B072C
:1024600086E08083E0910807F09109078081806110
:102470008083E0910807F09109078081886080835C
:10248000E0910807F0910907808180688083E091DE
:102490000807F091090780818F7D808390939100D8
:1024A0001092900081E08093F50D20E03DE730939D
:1024B000F40D2093F30D309397002093960091E153
:1024C000909391002BE034E03093F5062093F406CE
:1024D00080937100E4EDF6E0A4EBB6E01192119266
:1024E0001D921D9286E0E43FF807C1F70E94FF03AA
:1024F0006093B0067093B1068093B2069093B306D2
:102500000E94F306FADBFCCFFC0188279927E894A8
:1025100021912032E9F3293010F02E30C8F32B320C
:1025200039F02D3231F4689403C03FD0820F911DF1
:10253000219120532A30C8F31EF4909581959F4F26
:10254000089546EF5DE000C0FA01A191B0810097C7
:1025500019F41097E1F0CD01DC01CD010D900020C0
:1025600011F4C00113C0FB012191222319F02015A1
:10257000D9F7F3CFFB012191201519F41E92119682
:1025800006C02223C1F70D900020A1F7D001FA0167
:10259000A193B0830895BB274A3031F4992322F4E4
:1025A000BDE2909581959F4F09C07AE0979F902D4D
:1025B000879F802D910D11240895BB27FB0155277E
:1025C000AA27880F991FAA1FA41710F0A41B839590
:1025D0005051B9F7A05DAA3308F0A95DA193009707
:1025E00079F7B111B1931192CB0100C0DC01FC016C
:1025F000672F71917723E1F7329704C07C916D9337
:1026000070836291AE17BF07C8F30895052E97FB3C
:1026100016F400940FD057FD05D024D007FC02D04B
:1026200046F408C050954095309521953F4F4F4F47
:102630005F4F089590958095709561957F4F8F4F6E
:102640009F4F089531D0A59F900DB49F900DA49FEA
:10265000800D911D11240895B7FFF4CFF3DF821B85
:10266000930B0895A1E21A2EAA1BBB1BFD010DC0FE
:10267000AA1FBB1FEE1FFF1FA217B307E407F50732
:1026800020F0A21BB30BE40BF50B661F771F881F0E
:10269000991F1A9469F760957095809590959B01A4
:1026A000AC01BD01CF010895A29FB001B39FC0014D
:1026B000A39F700D811D1124911DB29F700D811D6E
:1026C0001124911D089597FB072E16F4009406D04F
:1026D00077FD08D013D007FC05D03EF49095819586
:1026E0009F4F0895709561957F4F0895EE0FFF1FDE
:1026F000881F8BBF0790F691E02D1994AA1BBB1B76
:1027000051E107C0AA1FBB1FA617B70710F0A61BF1
:10271000B70B881F991F5A95A9F780959095BC0112
:10272000CD010895CF93DF938230910510F482E0BC
:1027300090E0E091FA0DF091FB0D20E030E0C0E078
:10274000D0E0309711F14081518148175907C0F00E
:102750004817590761F482819381209719F09B8370
:102760008A832BC09093FB0D8093FA0D26C0211510
:10277000310519F04217530718F49A01BE01DF0121
:10278000EF010280F381E02DDCCF2115310509F145
:10279000281B390B2430310590F412968D919C91B1
:1027A00013976115710521F0FB019383828304C0A7
:1027B0009093FB0D8093FA0DFD01329644C0FD010C
:1027C000E20FF31F81939193225031092D933C9393
:1027D0003AC02091F80D3091F90D232B41F420914E
:1027E0000302309104023093F90D2093F80D2091EB
:1027F0000102309102022115310541F42DB73EB797
:102800004091050250910602241B350BE091F80D12
:10281000F091F90DE217F307A0F42E1B3F0B2817D8
:10282000390778F0AC014E5F5F4F2417350748F049
:102830004E0F5F1F5093F90D4093F80D81939193C4
:1028400002C0E0E0F0E0CF01DF91CF9108950F9357
:102850001F93CF93DF93009709F48CC0FC0132974C
:10286000138212820091FA0D1091FB0D01151105D2
:1028700081F420813181820F931F2091F80D3091D6
:10288000F90D2817390779F5F093F90DE093F80D54
:1028900071C0D80140E050E0AE17BF0750F4129667
:1028A0002D913C911397AD012115310509F1D90105
:1028B000F3CF9D01DA013383228360817181860F1A
:1028C000971F8217930769F4EC0128813981260F3D
:1028D000371F2E5F3F4F318320838A819B819383F3
:1028E0008283452B29F4F093FB0DE093FA0D42C04F
:1028F0001396FC93EE931297ED01499159919E0125
:10290000240F351FE217F30771F480819181840F42
:10291000951F029611969C938E93828193811396B4
:102920009C938E931297E0E0F0E0D80112968D917F
:102930009C911397009719F0F8018C01F6CF8D91B7
:102940009C9198012E5F3F4F820F931F2091F80DAD
:102950003091F90D2817390769F4309729F410924E
:10296000FB0D1092FA0D02C0138212821093F90D22
:102970000093F80DDF91CF911F910F9108956F9201
:102980007F928F929F92AF92BF92CF92DF92EF92FF
:10299000FF920F931F93CF93DF93EC01009781F485
:1029A000CB01DF91CF911F910F91FF90EF90DF90BE
:1029B000CF90BF90AF909F908F907F906F90B2CE4E
:1029C000FC01E60FF71F9C0122503109E217F307C3
:1029D00008F4A8C0D9010D911C911197061717078B
:1029E000A8F00530110508F49BC0C80104978617AC
:1029F000970708F495C002501109061B170B0193A5
:102A000011936D937C93CF0122DF8AC05B01A01AE2
:102A1000B10A4C01800E911EA091FA0DB091FB0DF0
:102A200040E050E0E12CF12C109709F44AC0A815C1
:102A3000B905D1F56D907C901197630182E0C80EC5
:102A4000D11CCA14DB0480F1A3014A195B096A0195
:102A500082E0C80ED11C1296BC9012971396AC91CE
:102A6000B5E0CB16D10440F0B282A38351834083FA
:102A7000D9016D937C930AC00E5F1F4FC301800F75
:102A8000911FF90191838083EB2DFA2FE114F1045A
:102A900031F0D7011396FC93EE93129741C0F09357
:102AA000FB0DE093FA0D3CC08D919C911197481756
:102AB000590708F4AC017D0112960D90BC91A02D30
:102AC000B3CF8091F80D9091F90D88159905E1F437
:102AD00046175707C8F480910102909102020097AF
:102AE00041F48DB79EB74091050250910602841BB8
:102AF000950BE817F907B0F4F093F90DE093F80D92
:102B0000F901718360830CC0CB010CDE7C0100975E
:102B100049F0A801BE011BD0CE0199DEC70104C057
:102B2000CE0102C080E090E0DF91CF911F910F9124
:102B3000FF90EF90DF90CF90BF90AF909F908F90DD
:102B40007F906F90089581E090E0F89424C0FB019D
:102B5000DC0102C001900D9241505040D8F7089519
:102B6000FB01DC010D900020E9F7119701900D9217
:102B70000020E1F70895FB01DC018D91019080199F
:102B80000110D9F3990B0895FB01DC0101900D921E
:0A2B90000020E1F70895F894FFCF4C
:102B9A00010000FC0D800000000000160E800DAF41
:102BAA000D5C0EE00DBE0DD20D3E3E415244204456
:102BBA00454255473E70726F63657373436F6D6D1F
:102BCA00616E64734275666665723E636F6D6D61B0
:102BDA006E6473206275666665723A20000D0A009B
:102BEA003E3E4152442044454255473E70726F630F
:102BFA00657373436F6D6D616E643E636F6D6D6176
:102C0A006E643A20003E3E415244204445425547B4
:102C1A003E70726F63657373436F6D6D616E643E70
:102C2A00434D4420636F64653A200053575F50490F
:102C3A004E530053573A00524F54454E435F504942
:102C4A004E53002C00504F545F50494E5300504F82
:102C5A00543A0050574D5F50494E530050574D005B
:102C6A00534552564F5F50494E5300534552564FA3
:102C7A00004449474F55545F50494E530044494711
:102C8A004F555400524F54454E433A005245414421
:102C9A00593B00312E320056455253494F4E3A00A5
:020000023000CC
:10E000000D9489F10D94B2F10D94B2F10D94B2F129
:10E010000D94B2F10D94B2F10D94B2F10D94B2F1F0
:10E020000D94B2F10D94B2F10D94B2F10D94B2F1E0
:10E030000D94B2F10D94B2F10D94B2F10D94B2F1D0
:10E040000D94B2F10D94B2F10D94B2F10D94B2F1C0
:10E050000D94B2F10D94B2F10D94B2F10D94B2F1B0
:10E060000D94B2F10D94B2F10D94B2F10D94B2F1A0
:10E070000D94B2F10D94B2F10D94B2F10D94B2F190
:10E080000D94B2F10D94B2F10D94B2F10D94B2F180
:10E090000D94B2F10D94B2F10D94B2F10D94B2F170
:10E0A0000D94B2F10D94B2F10D94B2F10D94B2F160
:10E0B0000D94B2F10D94B2F10D94B2F10D94B2F150
:10E0C0000D94B2F10D94B2F10D94B2F10D94B2F140
:10E0D0000D94B2F10D94B2F10D94B2F10D94B2F130
:10E0E0000D94B2F141546D656761323536300041AF
:10E0F000726475696E6F206578706C6F72657220DE
:10E1000073746B3530305632206279204D4C530099
:10E11000426F6F746C6F616465723E004875683F52
:10E1200000436F6D70696C6564206F6E203D200048
:10E130004350552054797065202020203D20005FF9
:10E140005F4156525F415243485F5F3D2000415658
:10E1500052204C696243205665723D20004743437C
:10E160002056657273696F6E203D20004350552024
:10E1700049442020202020203D20004C6F7720663D
:10E18000757365202020203D20004869676820665F
:10E190007573652020203D200045787420667573D6
:10E1A00065202020203D20004C6F636B2066757336
:10E1B000652020203D20004D617220203720323024
:10E1C000313300312E362E3800342E332E350056A2
:10E1D00023202020414444522020206F7020636F70
:10E1E00064652020202020696E73747275637469E1
:10E1F0006F6E2061646472202020496E74657272B3
:10E20000757074006E6F20766563746F7200726A49
:10E210006D702020006A6D70200057686174207056
:10E220006F72743A00506F7274206E6F7420737541
:10E2300070706F72746564004D7573742062652030
:10E2400061206C6574746572002000577269747483
:10E25000696E672045450052656164696E672045B7
:10E26000450045452065727220636E743D00504F35
:10E27000525400303D5A65726F2061646472003FF1
:10E280003D43505520737461747300403D454550C3
:10E29000524F4D207465737400423D426C696E6B41
:10E2A000204C454400453D44756D70204545505215
:10E2B0004F4D00463D44756D7020464C415348001B
:10E2C000483D48656C70004C3D4C69737420492F83
:10E2D0004F20506F72747300513D51756974005234
:10E2E0003D44756D702052414D00563D73686F7707
:10E2F00020696E7465727275707420566563746FF0
:10E30000727300593D506F727420626C696E6B00BD
:10E310002A0011241FBECFEFD1E2DEBFCDBF01E046
:10E320000CBF12E0A0E0B2E0EEE1FDEF03E00BBFB6
:10E3300002C007900D92A030B107D9F712E0A0E01B
:10E34000B2E001C01D92AE30B107E1F70F9460F367
:10E350000D948DFE01E20EBF0FEF0DBF11241FBE05
:10E360000D9460F30D9400F020E030E040ED57E0B4
:10E3700005C0FA013197F1F72F5F3F4F2817390792
:10E38000C0F308959C01260F311DC901A0E0B0E043
:10E390002F5F3F4FABBFFC018791882361F08093D3
:10E3A000C6008091C00086FFFCCF8091C0008064D1
:10E3B0008093C000EACF08958DE08093C6008091DD
:10E3C000C00086FFFCCF8091C00080648093C000B5
:10E3D0008AE08093C6008091C00086FFFCCF8091C8
:10E3E000C00080648093C00008950F94C2F10F9420
:10E3F000DCF10895FC019081992359F09093C600B7
:10E400008091C00086FFFCCF8091C0008064809323
:10E41000C0003196992379F70895282F982F929567
:10E420009F70892F805D8A3308F0895F8093C600D2
:10E430008091C00086FFFCCF8091C00080648093F3
:10E44000C000822F8F70982F905D9A3308F0995FEB
:10E450009093C6008091C00086FFFCCF8091C000E1
:10E4600080648093C00008959C01FB01853691056E
:10E470001CF46330710594F0C90164E670E00F94F8
:10E480002EFE605D7F4F6093C6008091C00086FFC6
:10E49000FCCF8091C00080648093C0002B30310598
:10E4A00014F43297B4F0C90164E670E00F942EFEC4
:10E4B0006AE070E00F942EFE605D7F4F6093C600AF
:10E4C0008091C00086FFFCCF8091C0008064809363
:10E4D000C000C9016AE070E00F942EFEC0968093E0
:10E4E000C6008091C00086FFFCCF8091C000806490
:10E4F0008093C00008951F93182F8EE692EE60E07F
:10E500000F94C2F11093C6008091C00086FFFCCF2B
:10E510008091C00080648093C0000F94DCF11F9153
:10E5200008952F923F924F925F926F927F928F92B7
:10E530009F92AF92BF92CF92DF92EF92FF920F9392
:10E540001F93DF93CF93CDB7DEB762970FB6F894E2
:10E55000DEBF0FBECDBF382E622ECA01DB015C01CB
:10E560006D01772420E2222E2E010894411C511CBB
:10E570008BC081E0A81680E0B80681E0C80680E084
:10E58000D80628F0C601AA27BB270F940DF2BB2797
:10E59000AD2D9C2D8B2D0F940DF28A2D0F940DF225
:10E5A0002092C6008091C00086FFFCCF8091C00001
:10E5B00080648093C0009DE29093C6008091C0006B
:10E5C00086FFFCCF8091C00080648093C0002092C1
:10E5D000C6008091C00086FFFCCF8091C00080649F
:10E5E0008093C00019828601750188249924A1E0D6
:10E5F0003A1651F03A1620F0B2E03B1661F409C029
:10E600000BBFF701779007C0C7010F9477FE782EF4
:10E6100002C0F7017080872D0F940DF22092C60082
:10E620008091C00086FFFCCF8091C0008064809301
:10E63000C000872D8052F401EF70F0708F3520F408
:10E64000E40DF51D708204C0E40DF51D8EE280839B
:10E650000894E11CF11C011D111D0894811C911CE2
:10E6600090E18916910409F0C2CF80E190E0A0E02A
:10E67000B0E0A80EB91ECA1EDB1E198AC2010F9493
:10E68000FAF10F94DCF16A94662009F072CF629679
:10E690000FB6F894DEBF0FBECDBFCF91DF911F91B3
:10E6A0000F91FF90EF90DF90CF90BF90AF909F9031
:10E6B0008F907F906F905F904F903F902F90089534
:10E6C0002F923F924F925F926F927F928F929F9282
:10E6D000AF92BF92CF92DF92EF92FF920F931F9370
:10E6E000DF93CF93CDB7DEB7CD53D1400FB6F894BB
:10E6F000DEBF0FBECDBF01E20EBF0FEF0DBF94B75F
:10E70000F894A89514BE80916000886180936000A1
:10E7100010926000789493FF05C0E0910002F091A0
:10E7200001021995279A2F9A8091C00082608093E8
:10E73000C00080E18093C40088E18093C1000000A4
:10E74000EE24FF24870144E0A42EB12CCC24DD2448
:10E7500024C0C5010197F1F70894E11CF11C011DCB
:10E76000111D21E2E2162EE4F20620E0020720E06D
:10E77000120718F031E0C32ED12CC801B70127ECE5
:10E780003BE140E050E00F9441FE611571058105C9
:10E79000910519F485B1805885B98091C00087FD35
:10E7A00003C0C114D104A9F2A6014F5F5F4FC25E3E
:10E7B000DE4F59834883CE51D140C25EDE4F8881FF
:10E7C0009981CE51D140019711F00D9410FEC05D9A
:10E7D000DE4F19821882C053D14060E0C15DDE4F28
:10E7E0001882CF52D14088249924C35DDE4F19820C
:10E7F0001882CD52D140C05EDE4F188219821A8233
:10E800001B82C052D140CE5CDE4F188219821A8220
:10E810001B82C253D140EE24FF2487010BBFF701B6
:10E8200007911691C45CDE4F19830883CC53D14005
:10E830000D940BFEC25EDE4F28813981CE51D1404E
:10E840002130310509F52091C600C25EDE4F1982E4
:10E850001882CE51D14022C02F5F3F4F4F4F5F4FA4
:10E86000213082E138078AE7480780E0580780F0C6
:10E87000C45CDE4FE881F981CC53D140EF5FFF4F9C
:10E8800019F0EE27FF27099420E030E040E050E047
:10E890008091C00087FFE0CF2091C600C35DDE4FAE
:10E8A00048815981CD52D1404F5F5F4FC35DDE4FEC
:10E8B00059834883CD52D140213209F063C64A3092
:10E8C000510508F05FC60894811C911C53E0851621
:10E8D000910409F059C600E010E018C081E280936D
:10E8E000C6008091C00086FFFCCF8091C00080648C
:10E8F0008093C0002F5F3F4F2931310579F70F9486
:10E90000DCF10F5F1F4F0530110519F020E030E0FA
:10E91000E5CF10920A0210920B0210920C02109294
:10E920000D02109206021092070210920802109235
:10E930000902109202021092030210920402109235
:10E9400005028FEE90EE60E00F94F5F180E191EE1C
:10E9500060E00F94C2F18091C00087FFFCCF9091DE
:10E96000C600903608F09F759032B8F09093C600BC
:10E970008091C00086FFFCCF8091C00080648093AE
:10E98000C000A0E2A093C6008091C00086FFFCCF2B
:10E990008091C00080648093C000983409F4D7C18E
:10E9A0009934B8F4923409F459C1933458F490333B
:10E9B00019F1903308F4E3C59F33A1F1903409F0C5
:10E9C000DEC5BDC0953409F470C1963409F0D7C5D1
:10E9D00098C1923509F42BC2933538F49C3409F46C
:10E9E000F5C1913509F0CBC518C2963509F445C279
:10E9F000993509F0C4C567C483E792EE62E00F94CD
:10EA0000F5F110920602109207021092080210927D
:10EA1000090210920A0210920B0210920C0210923C
:10EA20000D0213C18FE792EE62E00F94F5F18FEEC5
:10EA300090EE60E00F94F5F181E291EE60E00F94CA
:10EA4000C2F187EB91EE60E00F94F5F180E391EE77
:10EA500060E00F94C2F184EE90EE60E00F94F5F167
:10EA60008FE391EE60E00F94C2F186E090E061E008
:10EA700070E00F9434F20F94DCF18DE591EE60E0DC
:10EA80000F94C2F189EC91EE60E00F94F5F18EE401
:10EA900091EE60E00F94C2F183EC91EE60E00F9490
:10EAA000F5F18CE691EE60E00F94C2F18EE10F94E7
:10EAB0000DF288E90F940DF281E00F940DF20F949E
:10EAC000DCF18BE791EE60E00F94C2F119E0E0E039
:10EAD000F0E010935700E4918E2F0F940DF20F94F5
:10EAE000DCF18AE891EE60E00F94C2F1E3E0F0E03F
:10EAF00010935700E4918E2F0F940DF20F94DCF1D8
:10EB000089E991EE60E00F94C2F1E2E0F0E0109349
:10EB10005700E4918E2F0F940DF20F94DCF188EAE8
:10EB200091EE60E00F94C2F1E1E0F0E01093570045
:10EB30001491812F0F940DF20F94DCF107CF8BE825
:10EB400092EE62E00F94F5F18BE492EE60E00F94A8
:10EB5000F5F10F94DCF100E010E019C0C8016F2D51
:10EB60000F947FFEFF2031F489E492EE60E00F9471
:10EB7000C2F10BC0F092C6008091C00086FFFCCFAE
:10EB80008091C00080648093C0000F5F1F4FC80158
:10EB900081519F41A0E0B0E0ABBFFC01F790BAE229
:10EBA000FB1621F0E2E000301E07C1F60F94DCF105
:10EBB0000F94DCF187E592EE60E00F94F5F10F948D
:10EBC000DCF1CC24DD2400E010E01EC0C8010F946D
:10EBD00077FEF82E882331F489E492EE60E00F94FA
:10EBE000C2F10BC08093C6008091C00086FFFCCFAD
:10EBF0008091C00080648093C000FE1419F00894D6
:10EC0000C11CD11C0F5F1F4FC80181519F41A0E063
:10EC1000B0E0ABBFFC01E790FAE2EF1621F022E092
:10EC20000030120799F60F94DCF10F94DCF182E6C4
:10EC300092EE60E00F94C2F1C60161E070E00F94C3
:10EC400034F20F94DCF10F94DCF110920202109276
:10EC50000302109204021092050278CE89E992EE26
:10EC600062E00F94F5F1279A2F9A16C02F9880E052
:10EC700090E0E0EDF7E03197F1F7019684369105E9
:10EC8000C1F72F9A80E090E0E0EDF7E03197F1F7DF
:10EC9000019684369105C1F78091C00087FFE6CFC9
:10ECA0008091C00087FFFCCF64C485EA92EE62E0E9
:10ECB0000F94F5F140910202509103026091040219
:10ECC0007091050281E020E10F9491F2809102029F
:10ECD00090910302A0910402B091050280509F4FD1
:10ECE000AF4FBF4F8093020290930302A0930402A0
:10ECF000B093050280509041A040B04008F426CE69
:10ED0000A4CF83EB92EE62E00F94F5F140910602FE
:10ED100050910702609108027091090280E020E1A1
:10ED20000F9491F28091060290910702A09108023F
:10ED3000B091090280509F4FAF4FBF4F80930602A2
:10ED400090930702A0930802B0930902FFCD80ECD4
:10ED500092EE62E00F94F5F183E792EE60E00F949B
:10ED6000F5F18FE792EE60E00F94F5F18BE892EE0B
:10ED700060E00F94F5F189E992EE60E00F94F5F10F
:10ED800085EA92EE60E00F94F5F183EB92EE60E09D
:10ED90000F94F5F180EC92EE60E00F94F5F187ECC2
:10EDA00092EE60E00F94F5F188ED92EE60E00F9442
:10EDB000F5F18FED92EE60E00F94F5F18AEE92EEB0
:10EDC00060E00F94F5F183E093EEBDCD87EC92EE19
:10EDD00062E00F94F5F181E40F947BF282E40F94EA
:10EDE0007BF283E40F947BF284E40F947BF285E45E
:10EDF0000F947BF286E40F947BF287E40F947BF20E
:10EE000088E40F947BF28AE40F947BF28BE40F94F6
:10EE10007BF28CE40F947BF299CD88ED92EE62E068
:10EE20000F94F5F1772473948824992409C48FED05
:10EE300092EE62E00F94F5F140910A0250910B02BC
:10EE400060910C0270910D0282E020E10F9491F22A
:10EE500080910A0290910B02A0910C02B0910D02D8
:10EE600080509F4FAF4FBF4F80930A0290930B0289
:10EE7000A0930C02B0930D0269CD8AEE92EE62E08F
:10EE80000F94F5F184EE90EE60E00F94F5F18FECC5
:10EE900091EE60E00F94F5F1662477244301CC5D98
:10EEA000DE4F19821882C452D140D401C301B695F5
:10EEB000A79597958795CA5DDE4F88839983AA8326
:10EEC000BB83C652D140CC5DDE4FA881B981C4520C
:10EED000D1401196CC5DDE4FB983A883C452D14096
:10EEE000CD0162E070E00F9434F2B0E2B093C6005E
:10EEF0008091C00086FFFCCF8091C0008064809329
:10EF0000C000EDE2E093C6008091C00086FFFCCF18
:10EF10008091C00080648093C000F0E2F093C6004E
:10EF20008091C00086FFFCCF8091C00080648093F8
:10EF3000C000CA5DDE4FE880F9800A811B81C6529D
:10EF4000D140BB27A12F902F8F2D0F940DF2CA5DBA
:10EF5000DE4F8881C652D1400F940DF2B0E2FB2EF5
:10EF6000F092C6008091C00086FFFCCF8091C00067
:10EF700080648093C0000DE30093C6008091C000C0
:10EF800086FFFCCF8091C00080648093C00010E2B7
:10EF90001093C6008091C00086FFFCCF8091C00016
:10EFA00080648093C0008BBEF3012791C65DDE4F65
:10EFB0002883CA52D140A22EBB24CC24DD2408943D
:10EFC000611C711C811C911C8BBEF3018791282E42
:10EFD0003324442455240894611C711C811C911C09
:10EFE0008BBEF3013791C55DDE4F3883CB52D140E4
:10EFF0000894611C711C811C911C8BBEF30147910C
:10F00000C45DDE4F4883CC52D140ADEFEA2EAFEF66
:10F01000FA2EAFEF0A2FAFEF1A2F6E0C7F1C801E57
:10F02000911E142D032DF22CEE24EA0CFB1C0C1D5A
:10F030001D1D0F940DF220E22093C6008091C000A8
:10F0400086FFFCCF8091C00080648093C000C65DC5
:10F05000DE4F8881CA52D1400F940DF230E23093D6
:10F06000C6008091C00086FFFCCF8091C000806404
:10F070008093C000C45DDE4F8881CC52D1400F9494
:10F080000DF240E24093C6008091C00086FFFCCFA5
:10F090008091C00080648093C000C55DDE4F888190
:10F0A000CB52D1400F940DF250E25093C6008091A4
:10F0B000C00086FFFCCF8091C00080648093C000B8
:10F0C0008FEFE8168FEFF80680E0080780E018075A
:10F0D00031F484E092EE60E00F94C2F1DFC0D80119
:10F0E000C7018070907CA070B0708050904CA040A0
:10F0F000B040D1F52FEF3FE340E050E0E222F322B1
:10F1000004231523CA5DDE4FA880B980CA80DB8046
:10F11000C652D140AE0CBF1CC01ED11EAA0CBB1CD7
:10F12000CC1CDD1C8EE092EE60E00F94C2F1BB2798
:10F13000A12F902F8F2D0F940DF28E2D0F940DF285
:10F1400030E23093C6008091C00086FFFCCF8091F2
:10F15000C00080648093C0004EE34093C60080915D
:10F16000C00086FFFCCF87C08EE09EEFA0E0B0E03D
:10F17000E822F9220A231B239CE0E91694E9F90608
:10F1800090E0090790E0190709F088C0C45DDE4FE0
:10F19000A881CC52D140EA2EFF2400E010E0102FCD
:10F1A0000F2DFE2CEE24C55DDE4FB881CB52D14031
:10F1B000EB0EF11C011D111DD601C501817090706F
:10F1C000A070B070DC0199278827E80EF91E0A1F8D
:10F1D0001B1F20EF30E040E050E0A222B322C42207
:10F1E000D52241E1AA0CBB1CCC1CDD1C4A95D1F7F1
:10F1F000EA0CFB1C0C1D1D1D81E090E0A0E0B0E0BE
:10F20000282239224A225B2235E1220C331C441C7D
:10F21000551C3A95D1F7E20CF31C041D151D57013E
:10F220006801AA0CBB1CCC1CDD1C85E192EE60E0E1
:10F230000F94C2F1C801AA27BB270F940DF2BB2778
:10F24000A12F902F8F2D0F940DF28E2D0F940DF274
:10F2500090E29093C6008091C00086FFFCCF809121
:10F26000C00080648093C000AEE3A093C60080918C
:10F27000C00086FFFCCF8091C00080648093C000F6
:10F28000C601AA27BB270F940DF2BB27AD2D9C2DDD
:10F290008B2D0F940DF28A2D0F940DF20F94DCF14B
:10F2A000CC5DDE4FE881F981C452D140F99709F471
:10F2B0004DCBF4E0EF2EF12C012D112D6E0C7F1CA7
:10F2C000801E911EF2CD83E093EE62E00F94F5F183
:10F2D0008AE192EE60E00F94C2F18091C00087FF56
:10F2E000FCCF1091C6001F751093C6008091C0001E
:10F2F00086FFFCCF8091C00080648093C0000F9493
:10F30000DCF1812F81548A3108F036C1163409F4BA
:10F3100095C0173490F4133409F44EC0143430F40B
:10F320001134F1F0123409F01DC130C0143409F465
:10F3300059C0153409F016C16BC01A3409F4C4C0A1
:10F340001B3438F4173409F48FC0183409F00AC19B
:10F35000A1C01B3409F4D2C01C3409F003C1E8C0B9
:10F360008FEF81B90DC082B1809582B980E090E0C5
:10F37000E0EDF7E03197F1F70196883C9105C1F790
:10F380008091C00087FFEFCF12B8EFC08FEF84B934
:10F390000DC085B1809585B980E090E0E0EDF7E0A3
:10F3A0003197F1F70196883C9105C1F78091C00033
:10F3B00087FFEFCF15B8D9C08FEF87B90DC088B1DF
:10F3C000809588B980E090E0E0EDF7E03197F1F7C3
:10F3D0000196883C9105C1F78091C00087FFEFCF6F
:10F3E00018B8C3C08FEF8AB90DC08BB180958BB9A7
:10F3F00080E090E0E0EDF7E03197F1F70196883C8E
:10F400009105C1F78091C00087FFEFCF1BB8ADC059
:10F410008FEF8DB90DC08EB180958EB980E090E0F0
:10F42000E0EDF7E03197F1F70196883C9105C1F7DF
:10F430008091C00087FFEFCF1EB897C08FEF80BBD1
:10F440000DC081B3809581BB80E090E0E0EDF7E0F6
:10F450003197F1F70196883C9105C1F78091C00082
:10F4600087FFEFCF11BA81C08FEF83BB0DC084B38C
:10F47000809584BB80E090E0E0EDF7E03197F1F714
:10F480000196883C9105C1F78091C00087FFEFCFBE
:10F4900014BA6BC08FEF809301010FC080910201FD
:10F4A00080958093020180E090E0E0EDF7E03197F5
:10F4B000F1F70196883C9105C1F78091C00087FF64
:10F4C000EDCF1092020151C08FEF809304010FC065
:10F4D0008091050180958093050180E090E0E0ED4A
:10F4E000F7E03197F1F70196883C9105C1F78091DB
:10F4F000C00087FFEDCF1092050137C08FEF8093DA
:10F5000007010FC08091080180958093080180E079
:10F5100090E0E0EDF7E03197F1F70196883C910536
:10F52000C1F78091C00087FFEDCF109208011DC088
:10F530008FEF80930A010FC080910B01809580931B
:10F540000B0180E090E0E0EDF7E03197F1F70196F4
:10F55000883C9105C1F78091C00087FFEDCF1092E4
:10F560000B0103C085E292EEEEC98091C00087FFD7
:10F57000FCCF8091C600EAC988E392EEE4C98CE131
:10F5800091EEE1C988249924933011F1943028F444
:10F59000913089F09230B8F408C0953061F195301F
:10F5A000F0F0963009F048C043C02B3109F042C951
:10F5B00091E06BE13FC96227C15DDE4F2883CF52E6
:10F5C000D14092E037C9B22FA0E0622793E032C960
:10F5D000822F90E0A82BB92B622794E02BC92E3004
:10F5E00009F039C3622795E0C05DDE4F19821882A9
:10F5F000C053D1401FC9E1E0F0E0EC0FFD1FC05D3A
:10F60000DE4F08811981C053D140E00FF11F2083E4
:10F610000F5F1F4FC05DDE4F19830883C053D14079
:10F6200062270A171B0709F005C9D80196E002C92D
:10F63000261709F010C303C0973009F0FBC87724E0
:10F640009981933109F412C19431C8F4963009F4C8
:10F65000D8C0973050F4923009F406C1933009F4C1
:10F660006DC0913009F059C253C0913109F477C08F
:10F67000923108F0BBC0903109F04FC2F5C098310B
:10F6800009F487C0993150F4953109F4EFC09531F0
:10F6900008F4C6C1963109F040C2C2C19A3109F4DA
:10F6A0006CC09A3108F491C09B3109F45BC09D3164
:10F6B00009F033C29D81903359F48F81882311F46E
:10F6C0009EE11CC0813011F091E018C098E916C08D
:10F6D000892F807591F0903539F4E0E0F0E089E011
:10F6E0008093570094910AC0983539F4E3E0F0E034
:10F6F00089E080935700949101C090E01A821B82A8
:10F700008D818C831D829E831F8227E030E009C299
:10F710001A8288E08B8381E48C8386E58D8382E581
:10F720008E8389E48F8383E5888780E589878FE5E9
:10F730008A8782E38B872BE030E0F3C18A818139AD
:10F7400041F0823941F0803911F48FE005C080E04A
:10F7500003C082E001C08AE01A828B8344C0772410
:10F76000739482C08D81882311F48EE12CC0813086
:10F7700011F081E028C088E926C01A82E1E0F0E0BB
:10F7800089E08093570084918B831C8224E030E0D1
:10F79000C8C18B81803589F48C81883039F4E2E0EE
:10F7A000F0E089E08093570084910DC0E0E0F0E044
:10F7B00089E080935700849106C0E3E0F0E089E09F
:10F7C0008093570084911A82DFCF8D81836C99E0FA
:10F7D000E1E0F0E0082E90935700E89507B600FCB2
:10F7E000FDCF1A821B8223E030E09BC180EC8A832C
:10F7F000CE5CDE4F188219821A821B82C253D1401E
:10F800008EC18A8190E0A0E0B0E0582F44273327D2
:10F8100022278B8190E0A0E0B0E0DC0199278827C7
:10F82000282B392B4A2B5B2B8D8190E0A0E0B0E098
:10F83000282B392B4A2B5B2B8C8190E0A0E0B0E089
:10F84000BA2FA92F982F8827282B392B4A2B5B2BCF
:10F85000220F331F441F551FC05EDE4F288339839C
:10F860004A835B83C052D1401A8259C13A81C95C34
:10F87000DE4F3883C753D140CA5CDE4F1882C6536F
:10F88000D1408B81C82EDD24CA5CDE4F488159816E
:10F89000C653D140C42AD52A933109F082C0CE5C28
:10F8A000DE4F88819981AA81BB81C253D1408050AB
:10F8B000904CA340B04030F583E0CE5CDE4FE88052
:10F8C000F9800A811B81C253D140F70100935B008C
:10F8D00080935700E89507B600FCFDCFCE5CDE4F65
:10F8E000088119812A813B81C253D14000501F4FAA
:10F8F0002F4F3F4FCE5CDE4F088319832A833B8313
:10F90000C253D140C05EDE4F488159816A817B81FC
:10F91000C052D140DE011B9631E08C9111962C91A2
:10F9200011971296C75CDE4F2883C953D140C85C3B
:10F93000DE4F1882C853D14090E0C85CDE4FE881AA
:10F94000F981C853D1408E2B9F2B0C01FA01609393
:10F950005B0030935700E89511244E5F5F4F6F4F67
:10F960007F4F0EEFE02E0FEFF02ECE0CDF1CC114F8
:10F97000D10499F685E0C05EDE4F088119812A81A5
:10F980003B81C052D140F80120935B008093570027
:10F99000E89507B600FCFDCF81E180935700E8951C
:10F9A00035C0C05EDE4F88819981AA81BB81C0527B
:10F9B000D140B695A795979587957C018601ABE0D8
:10F9C000AA2EB12CAC0EBD1E0BC0D5016D915D01F0
:10F9D000C7010F947FFE0894E11CF11C01501040F8
:10F9E0000115110591F7A60160E070E0440F551F65
:10F9F000661F771FC05EDE4FE880F9800A811B8199
:10FA0000C052D1404E0D5F1D601F711F1A82C05E33
:10FA1000DE4F488359836A837B83C052D1407FC0C5
:10FA2000FA80C55CDE4FF882CB53D140C65CDE4F16
:10FA30001882CA53D1408B81C82EDD24C65CDE4FAC
:10FA400008811981CA53D140C02AD12A1A828981DA
:10FA5000BE016D5F7F4F843121F59601C05EDE4FA0
:10FA6000E880F9800A811B81C052D1400BBFF701A9
:10FA700087919691DB018C9311969C936E5F7F4FDB
:10FA8000D801C7010296A11DB11DC05EDE4F88835B
:10FA90009983AA83BB83C052D14022503040F1F6F3
:10FAA00036C0C05EDE4F288139814A815B81C052F9
:10FAB000D1400894C108D108760100E010E0089414
:10FAC000C11CD11C0894E11CF11C011D111DE20E8A
:10FAD000F31E041F151F21BDBB27A52F942F832FB5
:10FAE00082BD2F5F3F4F4F4F5F4FF89A80B5DB01CC
:10FAF0008D93BD012E153F054007510761F7C05E8C
:10FB0000DE4F288339834A835B83C052D1409601FC
:10FB10002D5F3F4FFB01108204C080EC8A8322E0FE
:10FB200030E08BE18093C6008091C00086FFFCCF5F
:10FB30008091C00080648093C000C15DDE4FF88179
:10FB4000CF52D140F093C6008091C00086FFFCCF19
:10FB50008091C00080648093C000432F3093C60022
:10FB60008091C00086FFFCCF8091C00080648093AC
:10FB7000C000922F2093C6008091C00086FFFCCF6A
:10FB80008091C00080648093C0008EE08093C600A6
:10FB90008091C00086FFFCCF8091C000806480937C
:10FBA000C00065E1C15DDE4FE880CF52D1406E25D7
:10FBB00069276427FE01319610C090819093C6009A
:10FBC0008091C00086FFFCCF31968091C000806498
:10FBD0008093C0006927215030402115310569F715
:10FBE0006093C6008091C00086FFFCCF8091C0006A
:10FBF00080648093C00085B1805885B9772081F4F6
:10FC0000C15DDE4F0881CF52D1400F5FC15DDE4F35
:10FC10000883CF52D14090E0A0E0B0E00D941AF4F8
:10FC200027982F9880E090E020ED37E0F901319798
:10FC3000F1F7019684369105C9F700008091C00064
:10FC40008D7F8093C00081E180935700E895EE2777
:10FC5000FF270994FFCF90E00D941AF497FB092E2B
:10FC600007260AD077FD04D02ED006D000201AF443
:10FC7000709561957F4F0895F6F7909581959F4F08
:10FC80000895A1E21A2EAA1BBB1BFD010DC0AA1FDD
:10FC9000BB1FEE1FFF1FA217B307E407F50720F0F5
:10FCA000A21BB30BE40BF50B661F771F881F991F70
:10FCB0001A9469F760957095809590959B01AC01B9
:10FCC000BD01CF010895AA1BBB1B51E107C0AA1FAC
:10FCD000BB1FA617B70710F0A61BB70B881F991FED
:10FCE0005A95A9F780959095BC01CD010895F99991
:10FCF000FECF92BD81BDF89A992780B50895262F31
:10FD0000F999FECF1FBA92BD81BD20BD0FB6F89400
:0EFD1000FA9AF99A0FBE01960895F894FFCF63
:040000033000E000E9
:00000001FF
